:020000040000FA
:1000000060040020ED020000F5020000F70200008D
:10001000F9020000FB020000FD02000000000000E9
:10002000000000000000000000000000FF020000CF
:10003000010300000000000003030000F50C0000B5
:100040000703000007030000070300000703000088
:100050000703000007030000070300000703000078
:100060000703000007030000070300000703000068
:100070000703000007030000070300000703000058
:100080000703000007030000070300000703000048
:100090000703000007030000070300000703000038
:1000A0000703000007030000070300000703000028
:1000B0000703000007030000070300000703000018
:1000C0000703000007030000070300000703000008
:1000D00007030000070300000703000007030000F8
:1000E00007030000070300000703000007030000E8
:1000F00007030000070300000703000007030000D8
:1001000007030000070300000703000007030000C7
:1001100007030000070300000703000007030000B7
:1001200007030000070300000703000007030000A7
:100130000703000007030000070300000703000097
:100140000703000007030000070300004505000047
:1001500055050000350500000703000007030000F7
:100160000703000007030000070300000703000067
:100170000703000007030000070300000703000057
:100180000703000007030000070300000703000047
:100190000703000007030000070300000703000037
:1001A0000703000007030000070300000703000027
:1001B0000703000007030000070300000703000017
:1001C0000703000007030000070300000703000007
:1001D00007030000070300000703000007030000F7
:1001E00007030000070300000703000007030000E7
:1001F00007030000070300000703000007030000D7
:1002000007030000070300000703000007030000C6
:1002100007030000070300000703000007030000B6
:1002200007030000070300000703000007030000A6
:100230000703000007030000070300000703000096
:100240000703000007030000070300000703000086
:100250000703000007030000070300000703000076
:100260000703000007030000070300000703000066
:100270000703000007030000070300000703000056
:100280000703000007030000070300000703000046
:100290000703000007030000070300000703000036
:1002A0000703000007030000070300000703000026
:1002B0000703000007030000070300000703000016
:1002C0000703000007030000070300000703000006
:1002D0000703000007030000DFF80CD000F07EF8F1
:1002E00000480047E52000006004002006488047E1
:1002F00006480047FEE7FEE7FEE7FEE7FEE7FEE70B
:10030000FEE7FEE7FEE7FEE7050F0000D90200006A
:100310002DE9F05F0546002092469B46884606463A
:10032000814640241BE0284641464746224600F0CD
:1003300045F853465A46C01A914110D31146184603
:10034000224600F016F82D1A67EB01084F462246A8
:100350000120002100F00DF817EB00094E41201E8E
:10036000A4F10104DFDC484631462A464346BDE895
:10037000F09F202A04DB203A00FA02F100207047A7
:100380009140C2F1200320FA03F3194390407047D3
:1003900030B50B46014600202022012409E021FA55
:1003A00002F59D4205D303FA02F5491B04FA02F552
:1003B0002844151EA2F10102F1DC30BD202A04DB25
:1003C000203A21FA02F00021704721FA02F3D040CE
:1003D000C2F120029140084319467047064C074D70
:1003E00006E0E06840F0010394E807009847103405
:1003F000AC42F6D3FFF774FF3849000058490000BB
:1004000070B58C1810F8015B15F0070301D110F8D6
:10041000013B2A1106D110F8012B03E010F8016B03
:1004200001F8016B5B1EF9D12B0705D40023521E86
:100430000DD401F8013BFAE710F8013BCB1A921CEE
:1004400003E013F8015B01F8015B521EF9D5A142EC
:10045000D8D3002070BD000038B52748082380227B
:1004600000210090084600F04DFA24A2032100204C
:1004700000F019FA05240AE0224603210C2000F0BE
:10048000F4F94FF4487001F07DF8601EC4B2002CFE
:10049000F2DC00F0CDF81C480823802200210090F7
:1004A000084600F02FFAC82001F06CF800F0C0F800
:1004B00016480823802200210090084600F022FA06
:1004C000C82001F05FF800F0B3F81148082380223B
:1004D00000210090084600F015FA4FF4487001F032
:1004E00051F800F0A5F80B4802238022002100906B
:1004F000084600F007FA38BD2038000053746172D6
:1005000074696E672E2E2E0020340000203000000B
:1005100020280000203C000005480068C0F3C011FE
:1005200003480068C0F3801001EB400070470000F2
:10053000000D0C4010B5024801F046FE10BD000051
:100540009401002010B5024801F095FF10BD000095
:100550009401002010B5024802F053F810BD0000CD
:100560009401002000B593B00A481290112101A80F
:1005700001F09EFB0020034603221121009001A8F8
:1005800001F07AF801230322112101A801F044F8B7
:1005900013B000BD00110C4000B593B023480A9081
:1005A000092101A801F084FB012000230422092174
:1005B000009001A801F060F8012000230522092124
:1005C000009001A801F058F801200023062209211B
:1005D000009001A801F050F8012000230722092112
:1005E000009001A801F048F80020034604220921E8
:1005F000009001A801F042FD0020034605220921D8
:10060000009001A801F03AFD0020034606220921CE
:10061000009001A801F032FD0020034607220921C5
:10062000009001A801F02AFD13B000BD00090C40A4
:1006300070B5002415E004F1B001C8B200F0D8FA9A
:10064000002000F0D5FA102000F0D2FA002504E0D6
:10065000002000F0E3FA681CC5B2802DF8DB601CB6
:10066000C4B2082CE7DB70BD2DE9F04180460E4690
:1006700017463A2F01D10A2502E0A7F13000C5B292
:100680003146404600F08BFA002407E0234901EB95
:100690008511085D00F0C2FA601CC4B2102CF5DBB5
:1006A00006F10800C1B2404600F079FA002409E0E2
:1006B0001A4901EB851204F11001505C00F0AEFA0A
:1006C000601CC4B2102CF3DB06F11000C1B240462E
:1006D00000F065FA002409E0104901EB851204F1ED
:1006E0002001505C00F09AFA601CC4B2102CF3DBBD
:1006F00006F11800C1B2404600F051FA002409E0AA
:10070000064901EB851204F13001505C00F086FAD5
:10071000601CC4B2102CF3DBBDE8F081784500000A
:100720002DE9F04106460D461746A7F1200000F0DE
:10073000FF082A07110EF206100E00F030FA00240E
:1007400007E0114901EB0811085D00F067FA601C31
:10075000C4B2082CF5DB082202EB0512D1B2F20676
:10076000100E00F01CFA002409E0074901EB081202
:1007700004F10801505C00F051FA601CC4B2082C6E
:10078000F3DBBDE8F0810000483F00002DE9F041B7
:1007900007460E4615463146384600F000FA00245A
:1007A00007E0104901EB4511085D00F037FA601CC5
:1007B000C4B2102CF5DB06F10800C1B2384600F0D7
:1007C000EEF9002409E0074901EB451204F110019C
:1007D000505C00F023FA601CC4B2102CF3DBBDE8BF
:1007E000F081000038480000FEB504460D4616466C
:1007F0002B46224609A1684600F0AAFC09A2012165
:10080000002000F050F86A460121002000F04BF86B
:10081000324610217020FFF7B9FFFEBD25642F2559
:100820006400000020202020200000002DE9F0417D
:1008300005460E4614460A2094FBF0F03030C7B24D
:100840003A4631462846FFF70FFF0A2094FBF0F1A5
:1008500000FB11403030C7B205F11001C8B23A4672
:100860003146FFF701FFBDE8F0812DE9F041054673
:100870000E4614460A2094FBF0F03030C7B23A46D8
:1008800031462846FFF74CFF0A2094FBF0F100FBAD
:1008900011403030C7B2691CC8B23A463146FFF742
:1008A0003FFFBDE8F08170B505460E46144607E0EF
:1008B00014F8012B31462846FFF732FF681CC5B2F9
:1008C00020780028F4D170BD70B504460D46164658
:1008D000224620210020FFF7A9FF3A2220210846C6
:1008E000FFF7C2FE2A4620213020FFF79FFF3A2261
:1008F00020215020FFF7B8FE324620216020FFF76C
:1009000095FF70BD2DE9F05F06460F4690461C46E8
:10091000DDF828A04FF0000BE11704EB5171C9106E
:10092000A4EBC10131B92046E11704EB5171C1F3C9
:10093000C70506E02046E11704EB5171C910491CB8
:10094000CDB23D4615E02946304600F03DF9B146AE
:100950000BE059464A1C1FFA82FB1AF8010000F00E
:100960005DF909F1010000F0FF09C145F1DB681CE8
:10097000C5B2A542E7DBBDE8F09F000008B510480E
:10098000104908630C210F4801F092F90C210D4821
:1009900001F08EF90120002302220C210090094869
:1009A00000F06AFE0120002304220C21009005487B
:1009B00000F062FE012004490861886008BD000063
:1009C000000C0C40180200200080814338B504461A
:1009D0000120002302220C210090104800F04CFE60
:1009E00000200F490861002515E0E0090C498860E6
:1009F0006006040E022000F0DDFD012008490861B8
:100A0000022000F0D7FD002005490861022000F017
:100A1000D1FD681CC5B2082DE7DB38BD18020020E7
:100A20000080814308B50120002302220C210090A0
:100A3000094800F021FE012008498860086104206F
:100A400000F0B8FD002005498860042000F0B2FDE8
:100A500000200249086108BD18020020008081437F
:100A600008B50120002302220C210090084800F064
:100A700003FE0020074908618860042000F09AFD09
:100A80000120044908618860042000F093FD08BD3E
:100A9000180200200080814338B50024002003465E
:100AA00002220C210090104800F0E6FD01200F49C1
:100AB000886000F07FFD01200C49086100F07AFD9C
:100AC00007E0601CC4B2FA2C03DDFFF7C9FF012068
:100AD00038BD07480068C0F380000028F1D1034901
:100AE000086100BFF4E70000180200200080814385
:100AF000000C0C4010B5FFF741FFAE2000F078F875
:100B0000D52000F075F8802000F072F8A82000F0E1
:100B10006FF83F2000F06CF8D32000F069F8002057
:100B200000F066F8402000F063F88D2000F060F8D7
:100B3000142000F05DF8202000F05AF8022000F0A8
:100B400057F8A12000F054F8C82000F051F8DA203E
:100B500000F04EF8122000F04BF8812000F048F829
:100B60007F2000F045F8D92000F042F8F12000F095
:100B70003FF8DB2000F03CF8302000F039F8A420EA
:100B800000F036F8A62000F033F8AF2000F030F87F
:100B9000FFF74EFD0021084600F001F810BD70B5CA
:100BA00004460D46B02101EBE501C8B200F020F883
:100BB000102141EA141000F01BF804F00F0141F07D
:100BC000010000F015F870BD70B504460D4605F142
:100BD000B001C8B200F00CF8102141EA141000F086
:100BE00007F804F00F0141F0010000F001F870BDBA
:100BF00010B50446FFF716FF7820FFF7E7FEFFF772
:100C00004BFF0020FFF7E2FEFFF746FF2046FFF70D
:100C1000DDFEFFF741FFFFF723FF10BD10B50446CF
:100C2000FFF700FF7820FFF7D1FEFFF735FF4020E8
:100C3000FFF7CCFEFFF730FF2046FFF7C7FEFFF7B8
:100C40002BFFFFF70DFF10BD00B593B013480E90BA
:100C50000D2101A801F02CF80D2101A801F028F8C0
:100C60000020034606220D21009001A800F004FD9B
:100C70000020034607220D21009001A800F0FCFC93
:100C8000012306220D2101A800F0C6FC0123072242
:100C90000D2101A800F0C0FC13B000BD000D0C40F8
:100CA00030B50146481EB0F1807F01D3012030BD30
:100CB000481E4FF0E022506150170F22002804DB3D
:100CC00013071C0E094B1C5406E013071D0E084B9E
:100CD00000F00F04241F1D5500BF00204FF0E0223C
:100CE0009061072010610020E1E7000000E400E0CF
:100CF00018ED00E00848006820B107480068401E71
:100D0000054908600548006820B104480068401E95
:100D100002490860704700002001002024010020E3
:100D2000F0B5002100200022002300250024614EA0
:100D3000726802F480730BB15F4900E05F495D4E59
:100D4000326A02F0020502F00104002D77D0002C77
:100D500075D05B4EB14213D1564E366A26F0FF066F
:100D6000584FBE4201D158486AE0524E366A26F0CA
:100D7000FF06564FBE4201D1554861E000205FE0BA
:100D8000544EB14213D14B4E366A26F0FF06524FF5
:100D9000BE4201D1514853E0464E366A26F0FF0666
:100DA0004F4FBE4201D14F484AE0002048E0434E39
:100DB000B14213D13F4E366A26F0FF064A4FBE427B
:100DC00001D1C8003CE03B4E366A26F0FF06474F93
:100DD000BE4201D1434833E0002031E0364EB142FB
:100DE00013D1344E366A26F0FF06414FBE4201D180
:100DF000404825E02F4E366A26F0FF063E4FBE42A1
:100E000001D13E481CE000201AE02C4EB14214D122
:100E1000284E366A26F0FF06334FBE4201D1C80085
:100E20000EE0244E366A26F0FF06304FBE4202D155
:100E30002C4805E003E0002002E0002000E0084626
:100E40001C4EB66806F00706082E2CD2DFE806F026
:100E500004070B0F1A252627294E306027E0460885
:100E6000274F3E6023E08608254F3E601FE0194E65
:100E7000B04203D3C608224F3E6002E00026204F56
:100E80003E6014E00C4EB04203D906091C4F3E6090
:100E900002E000261A4F3E6009E000BF00BF0026B6
:100EA000174F3E6003E00026154F3E6000BF00BFB5
:100EB000F0BD000000300F40001BB7008096980086
:100EC000808D5B000035651CD03EC4040035751C68
:100ED000E00B620200127A000028602400B4C4040F
:100EE00000287024005A62020020602E0020702E1C
:100EF000001AEA3640DFC204001AFA36A06F610217
:100F00002801002000202E490860B120091D08603A
:100F100000202C4988602C4808630846406840F04F
:100F2000020048602848401C086300BF274800684A
:100F30000028FBD12348406840F480702149486074
:100F400000BF234800680028FBD01E48406820F0FE
:100F500001001C4948601F4808630846006A20F0E9
:100F6000020008620846006A20F0010008621A4880
:100F700008621848401C086300BF14480068002835
:100F8000FBD116480F4908630846006A40F001008B
:100F900008620020C8601148401C086300BF0B486D
:100FA00000680028FBD10748006A40F002000549AC
:100FB000086200BF0A4800680028FBD070470000A4
:100FC00004B40B4000300F40000150EA0406E64331
:100FD000A400E6430001A004001AEA360001B012A2
:100FE0000804E64370B5054600209688B3B2002495
:100FF00031B900BF02E01668345C401C9842FAD355
:1010000070BD000001B584B004A8029001200390D7
:1010100002A90B4801F086FA08B100F014F800BFED
:1010200001A9074801F0A8F908B100F00CF80198EF
:1010300000F40040B0F5004FF2D005B000BD000054
:10104000940100207047704730B597B0044630488F
:10105000029001202F4908602F481690002102A815
:1010600000F026FE0120034602460021009002A85F
:1010700000F002FB0020012302220146009002A89A
:1010800000F0FAFA16A800F069F90546234B22464B
:10109000191F01F0D8F8224820490C3908600020B7
:1010A000486000211D480C3881601021C161002179
:1010B00041628162C162082101630021416481644F
:1010C000C16401654165816501660121416615497B
:1010D00041671549C0F8801001F054F91348149085
:1010E0006420159014A90D480C3801F0A5F943208F
:1010F000002809DB00F01F02012191404209920003
:1011000002F1E022C2F8001100BF17B030BD0000AC
:1011100000000C40940AE64300300F40A00100207C
:1011200000B00B4045100000E50F0000300100202A
:101130000FB4054B10B503A9044A029800F02CF82F
:1011400010BC5DF814FB0000091600002C01002003
:101150000FB4084B10B504A902AA039800F01CF8BC
:10116000044602A9002000F0F3F8204610BC5DF808
:1011700014FB00005113000002E008C8121F08C150
:10118000002AFAD170477047002001E001C1121F08
:10119000002AFBD1704700002DE9FF4F8BB09A4623
:1011A0000F460546002606E025280BD052460D992D
:1011B00090476D1C761C28780028F5D10FB030467A
:1011C000BDE8F08F0024A0460122604900E00443FE
:1011D00015F8013F203B02FA03F00842F7D12878C6
:1011E0002E2817D115F8010F44F004042A280ED038
:1011F0006FF02F022878A0F1300109290AD808EBF6
:10120000880102EB410100EB01086D1CF2E757F881
:10121000048B6D1C287869283ED006DC0028CDD0D0
:1012200063280BD0642804D136E0732810D07528C9
:101230004BD052460D999047761C85E017F8040B69
:101240008DF8000000208DF80100E946012003E040
:1012500057F8049B4FF0FF3061074FF0000401D4B2
:101260000AE0641C44450DDA8442FADB19F80410E4
:101270000029F6D106E0641C8442FCDB19F8041056
:101280000029F8D1264404E019F8010B52460D99C3
:101290009047641EF8D257E001CF4FF00A0B0028A8
:1012A00002DA40422D2102E0210504D52B218DF8E0
:1012B0002410012103E0E10705D02021F7E70DF11B
:1012C000200908910CE00021F9E701CF4FF00A0B4B
:1012D000F9E75946FFF75CF801F1300209F8012DF2
:1012E0000028F6D1ADEB090000F1200B600701D416
:1012F0004FF00108D84502DDA8EB0B0000E000200C
:101300008046002406E009A85246005D0D999047EA
:10131000641C761C08988442F5DB04E030205246B9
:101320000D999047761CB8F10001A8F10108F5DC91
:1013300005E019F8010B52460D999047761CBBF158
:101340000001ABF1010BF4DC6D1C34E7092801004E
:101350000A68531C0B6010707047000070B505469A
:101360000024FFF7DDFC2868806800F4E020B0F579
:10137000003F13D004DC50B1B0F5803F1AD109E032
:10138000B0F5403F0ED0B0F5802F13D10EE02048CD
:10139000046811E01E48006844000DE01C48006825
:1013A000840009E01A480068C40005E01848006895
:1013B000040101E0002400BF00BF2868806800F03D
:1013C000706020F07F41E9B900160A281AD2DFE8E0
:1013D00000F00507090B0D0F1113151700BF13E0DF
:1013E000640811E0A4080FE0E4080DE024090BE014
:1013F000640909E0A40907E0E40905E0240A03E020
:10140000640A01E0002400BF00BF204670BD000058
:101410002801002001460020012901D102201FE0FF
:10142000022901D103201BE0032901D1042017E088
:10143000042901D1052013E0052901D106200FE080
:10144000062901D107200BE0072901D1082007E078
:10145000082901D1012003E009B9012000E00D2095
:1014600070470146002001B930E0042901D1012074
:101470002CE0082901D1022028E00C2901D1032009
:1014800024E0102901D1042020E0142901D10520F5
:101490001CE0182901D1062018E01C2901D10720E1
:1014A00014E0202901D1082010E0282901D10920C9
:1014B0000CE02C2901D10A2008E0302901D10B20B1
:1014C00004E0382901D10C2000E00D207047000015
:1014D0002DE9F04782460C4615461F464FF000099D
:1014E0003846FFF797FF0646012E01D1BDE8F08789
:1014F0000D2E13DA122C11D2082D0FD2094800EB51
:10150000041030F81500304100F001084FF00109D7
:10151000B8F1000F04D14FF0000901E04FF00009CD
:101520004846E3E7000000202DE9F04782460C46DC
:1015300015461E464FF000093046FFF792FF07465A
:101540000D2F13DA122C11D2082D0FD20A4800EBFE
:10155000041030F81500384100F001084FF001097F
:10156000B8F1000F04D14FF0000901E04FF000097D
:101570004846BDE8F08700000000002010B5FFF7E6
:10158000CFFB10BD70B50446084800684FF47A716F
:10159000B0FBF1F52846FFF783FB0548046000BF68
:1015A000034800680028FBD170BD0000280100201E
:1015B0002401002070B50446074800680749B0FBC5
:1015C000F1F52846FFF76CFB0548046000BF0448AE
:1015D00000680028FBD170BD2801002040420F00A8
:1015E00020010020002200F114014FF0844303EB9E
:1015F00041110A607047002200F114014FF084434A
:1016000003EB41114A60704770B504460D46E0B2E5
:10161000FFF7F8FC204670BD2DE9F04707468846E5
:1016200015461E464FF0000A37B12C232A46414684
:101630003846FFF779FF10B94FF0010A16E00D4860
:10164000811501FB080909F12C04012E05D1206840
:101650000121A9400843206008E02EB9206801213B
:10166000A9408843206001E04FF0010A5046BDE8E0
:10167000F087000000000C402DE9F84F80468946B5
:1016800016469A460A9F4FF0000B002000905346E2
:10169000324649464046FFF71BFF0090B8F1000F65
:1016A00001D0009810B94FF0010BFEE2B9F1120F12
:1016B00040D2DFE809F0090C0F1215181B1E212477
:1016C000272A2D303336393CD8F8005035E0D8F889
:1016D000045032E0D8F808502FE0D8F80C502CE035
:1016E000D8F8105029E0D8F8145026E0D8F818504F
:1016F00023E0D8F81C5020E0D8F820501DE0D8F89E
:1017000024501AE0D8F8285017E0D8F82C5014E0EC
:10171000D8F8305011E0D8F834500EE0D8F83850EE
:101720000BE0D8F83C5008E0D8F8405005E0D8F875
:10173000445002E04FF0010B00BF00BFBBF1010FAE
:1017400002D15846BDE8F88F05F108042068012150
:10175000B14088432060241D20680121B1408843A6
:101760002060241D20680121B14088432060241D91
:1017700021680120B04081432160241D206801219F
:10178000B14088432060241D20680121B140884376
:101790002060241D20680121B140884320602C1D59
:1017A00020680121B1408843206034342068012141
:1017B000B14088432060BAF1090F78D2DFE80AF01F
:1017C000053682CDFCFBFAF9F800012F0DD105F1A9
:1017D000380420680121B140884320602C1D216815
:1017E0000120B040014321601FE06FB905F13804CA
:1017F00021680120B040014321602C1D2068012197
:10180000B1408843206010E0022F0DD105F138046B
:1018100020680121B140084320602C1D216801206F
:10182000B0400143216000E000BF3DE2012F13D131
:1018300005F1380421680120B04081432160303C2B
:1018400021680120B040014321602C1D2168012046
:10185000B0400143216034E09FB905F138042168AC
:101860000120B04001432160303C21680120B0409C
:10187000014321602C1D20680121B1408843206074
:101880001FE0022F14D105F1380420680121B14076
:1018900008432060303C20680121B14008432060AB
:1018A0002C1D20680121B1400843206009E0F7E1C8
:1018B000032F06D105F1080421680120B04001433F
:1018C0002160F1E1012F13D105F1380421680120D5
:1018D000B040814321602C3C21680120B04001438D
:1018E00021602C1D20680121B1400843206033E0B5
:1018F0009FB905F1380420680121B14008432060F8
:101900002C3C20680121B140084320602C1D216837
:101910000120B040814321601EE0022F13D105F168
:10192000380420680121B140084320602C3C216824
:101930000120B040014321602C1D21680120B040EE
:101940000143216008E0032F06D105F10C04206853
:101950000121B14008432060A6E1012F13D105F118
:10196000380421680120B04081432160283C21686F
:101970000120B040014321602C1D20680121B140AD
:101980000843206038E0C7B905F138042168012018
:10199000B04001432160283C21680120B040014350
:1019A00021602C1D20680121B1408843206023E084
:1019B00045E1F9E0ADE06BE01FE0022F13D105F146
:1019C000380421680120B04001432160283C21688F
:1019D0000120B040014321602C1D21680120B0404E
:1019E0000143216008E0032F06D105F110042168AE
:1019F0000120B0400143216056E1012F13D105F1D0
:101A0000380420680121B14088432060243C2068CC
:101A10000121B140084320602C1D21680120B04005
:101A20000143216033E09FB905F1380420680121AA
:101A3000B14008432060243C20680121B1400843A4
:101A400020602C1D20680121B140884320601EE0E9
:101A5000022F13D105F1380420680121B140084359
:101A60002060243C21680120B040014321602C1DEE
:101A700021680120B0400143216008E0032F06D116
:101A800005F1140421680120B040014321600BE1FD
:101A9000012F13D105F1380421680120B0408143A2
:101AA0002160203C20680121B140084320602C1DAA
:101AB00021680120B0400143216029E09FB905F170
:101AC000380421680120B04001432160203C206897
:101AD0000121B140084320602C1D21680120B04045
:101AE0008143216014E0022F12D105F138042168EE
:101AF0000120B04001432160203C21680120B0401A
:101B0000014321602C1D20680121B1400843206061
:101B1000CAE0012F13D105F1380420680121B1403A
:101B2000884320601C3C20680121B14008432060AC
:101B30002C1D20680121B1400843206033E09FB98B
:101B400005F1380421680120B040014321601C3CAC
:101B500020680121B140084320602C1D206801212C
:101B6000B140884320601EE0022F13D105F13804F4
:101B700020680121B140084320601C3C21680120FD
:101B8000B040014321602C1D20680121B140084371
:101B9000206008E0032F06D105F11C042068012114
:101BA000B140084320607FE0012F13D105F13804D4
:101BB00020680121B14088432060183C2068012141
:101BC000B140084320602C1D20680121B14008432A
:101BD000206033E09FB905F1380420680121B1404D
:101BE00008432060183C21680120B0400143216077
:101BF0002C1D20680121B140884320601EE0022F87
:101C000013D105F1380420680121B1400843206058
:101C1000183C21680120B040014321602C1D206840
:101C20000121B1400843206008E0032F06D105F1EF
:101C3000200420680121B1400843206034E0012FD6
:101C40000DD105F1380421680120B04081432160A5
:101C50002C1D20680121B140084320601FE06FB9AE
:101C600005F1380420680121B140084320602C1D93
:101C700020680121B1408843206010E0022F0DD17F
:101C800005F1380421680120B040014321602C1D7A
:101C900020680121B1400843206000E000BF03E05C
:101CA0004FF0010B58464DE500BF58464AE500008D
:101CB00010B5024600200AB90120DBE1122973D2D7
:101CC000DFE801F009264460738597B1C5E1FDFCAA
:101CD000FBFAF9F8F7F60023146823601468A3638D
:101CE0001468A3601468E360146823611468636176
:101CF0001468A3611468E361146863601468A362E4
:101D00001468E362146823630123DB4C2360B0E1B1
:101D10000023546823605468A3635468A360546824
:101D2000E36054682361546863615468A361546834
:101D3000E361546863605468A3625468E362546862
:101D400023630123CC4C241D236092E1002394687B
:101D500023609468A3639468A3609468E3609468C4
:101D60002361946863619468A36194686360946874
:101D7000A3629468E362946823630123BE4C083431
:101D8000236076E10023D4682360D468A363D46819
:101D90006360D468A362D468E362D46823630123D8
:101DA000B54C0C34236064E161E1002314692360C5
:101DB0001469A363146963601469A3621469E3621C
:101DC000146923630123AC4C1034236051E10023D8
:101DD000546923605469A363546963605469A362BE
:101DE0005469E362546923630123A34C14342360D0
:101DF0003FE10023946923609469A3639469A3601D
:101E00009469E36094692361946963619469636090
:101E10009469A3629469E362946923630123964CF5
:101E20001834236025E10023D4692360D469A363B7
:101E3000D469A360D4696360D469A362D469E3629E
:101E4000D469236301238C4C1C34236011E10023EB
:101E5000146A2360146AA363146AA360146AE360BB
:101E6000146A2361146A6361146AA361146A63606B
:101E7000146AA362146AE362146A236301237E4C2A
:101E800020342360F5E00023546A2360546AA3637E
:101E9000546AA360546AE360546A2361546A6361BC
:101EA000546AA361546A6360546AA362546A07E087
:101EB000C7E0B4E099E082E067E04AE02BE007E0A9
:101EC000E362546A236301236B4C24342360D0E023
:101ED0000023946A23601B23946AA3630023946AFB
:101EE000A360946AE360946A2361946A63611F2328
:101EF000946AA3611423946A63600023946AA362C2
:101F00001323946AE3620823946A236301235A4CDF
:101F100028342360ADE00023D46A2360D46AA3632D
:101F2000D46AA360D46AE360D46A2361D46A63612B
:101F3000D46AA361D46AE361D46A6360D46AA36299
:101F4000D46AE362D46A236301234B4C2C342360AC
:101F50008FE00023146B2360146BA363146BA360E6
:101F6000146BE360146B2361146B6361146BA361E6
:101F7000146B6360146BA362146BE362146B2363D2
:101F800001233D4C3034236073E00023546B236005
:101F9000546BA363546BA360546BE360546B236175
:101FA000546B6361546B6360546BA362546BE36264
:101FB000546B23630123304C3434236059E00023F5
:101FC000946B2360946BA363946B2361946B636144
:101FD000946B6360946BA362946BE362946B236372
:101FE0000123254C3834236043E00023D46B236065
:101FF000D46BA363D46BA360D46BE360D46B236115
:10200000D46B6361D46B6360D46BA362D46BE36203
:10201000D46B23630123184C3C34236029E0002354
:10202000146C2360146CA363146C6360146CA3625F
:10203000146CE362146C236301230F4C403423605F
:1020400017E00023546C2360546CA363546CA360AA
:10205000546CE360546C6360546CA362546CE36230
:10206000546C23630123044C4434236001E00120B9
:1020700010BD00BF00BFFBE7000AE6432DE9F047B3
:1020800006460F4615469846DDF820904FF0000AA8
:1020900036B143462A4639463046FFF745FA10B96D
:1020A0004FF0010A18E00E48811501FB0704444473
:1020B000B9F1010F05D120680121A9400843206032
:1020C0000AE0B9F1000F05D120680121A940884339
:1020D000206001E04FF0010A5046BDE8F0870000A3
:1020E00000000C401FB509274FF00D084FF00509FF
:1020F00016261C240B25FFF741FAFEF74DFAFEF7D2
:1021000031FAFEF7F7FCFEF79FFD4FF4E130FEF7E2
:102110009BFF1AA21CA11FA0FFF70AF8FEF79CF96B
:102120002A4621463046FEF7CFFB4A46414638460E
:10213000FEF75AFB20E05020FFF724FA681CC5B2D6
:102140003C2D02DB601CC4B200253C2C02DB701C61
:10215000C6B200242A4621463046FEF7B5FBFEF7FC
:10216000DBF982464B4642463946CDE90064CDE96B
:1021700002500CA0FEF7DCFFDDE7000031353A31FC
:10218000313A353900000000536570203135203276
:10219000303139000D0A54545F4D334851202573B6
:1021A000202573004E6F773A2025642D256420D0BA
:1021B000C7C6DA25642025643A25643A25642020C0
:1021C0002564200D0A0000002DE9F0410446206836
:1021D00046692068456A05F0100010280CD106F009
:1021E0000200022808D12068FFF705FA606F18B1D5
:1021F0000121626F60689047002705F008000828F9
:1022000000D1012705F00400042800D1012705F0C2
:102210000200022800D1012705F0010000B10127CA
:10222000012F0ED106F0010058B12068FFF7DAF94E
:102230008020005928B180210B59002201216068BB
:102240009847BDE8F0812DE9FF4F8BB08346924659
:1022500099460120089000BF00BF00210F46884624
:10226000BBF1000F7DD0BAF1000FFBD00C980068D5
:102270000009059001210020059ACDE909010846D1
:102280000999FEF776F804460D460020800140EAE1
:102290009B604FEA8B11CDE9061022462B46DDE903
:1022A0000601FEF735F8CDE906010026002004906E
:1022B0000025544622462B46DDE90601FEF728F8A4
:1022C000CDE90601DDE90601000940EA01700909CE
:1022D000CDE9060100BF43E0DDE906108C1940F1AD
:1022E00000054021611A75F1000037D3403C65F1CB
:1022F0000005A00940EA8564012C2FD3B4F5803F86
:102300002CD200210291039102A833465246CDE916
:10231000004058460C9900F000FAF0B9089880B9CE
:10232000DDE90210C91B70EB080014D24FF4000065
:10233000C9F80000C9F80460C9F80840DDE902786E
:1023400009E04FF40000C9F80000C9F80460C9F8BA
:102350000840DDE902780020089000BF701CC6B27A
:1023600000E005E03F2E02D804980028B4D000BF5A
:1023700008980FB0BDE8F08F024600201368DB69B3
:102380000B60704710B50146002300BF0868006865
:1023900000F080008028F9D002200A681060012037
:1023A0000A68106000BF0868006800F0800080289C
:1023B000F9D003200A68106200200A68D0600A8AF7
:1023C0001004CA6802434C6922430C682261D1E9B7
:1023D0000D021043CA6B10430A6C10434A6C104341
:1023E0008A6C1043CA6C10430A6D10434A6D104347
:1023F0008A6D1043CA6D10430A6E10434A6E104333
:102400000A685060886A02031446086B082801D2E3
:10241000020200E0002200BF44EA02004A6A1043C0
:102420008A691043CA6A1043CA6910430A6A104392
:102430000A689060184610BD70B504460D46002627
:102440002068FFF7CFF8606E022804D12868A067E3
:102450006968E16703E02868A0676968E167206848
:10246000012200F114014FF0844303EB41110A6093
:1024700000BF304670BD2DE9FC4104462068D0F80D
:1024800014802068C76960202168C86108F00100D5
:10249000002845D007F04000402803D007F0200076
:1024A00020283DD107F00F05082D00D90825002D63
:1024B00035D000261CE0606E80B1012809D00228CA
:1024C00013D120688069C0F30800A16F21F81600BD
:1024D0000CE020688069A16F885507E0206880695A
:1024E00000F07F00A16F885500E000BF00BF761CA0
:1024F000AE42E0D38020005980B1606E022803D143
:10250000A06F0090019502E0A06F009001958021DE
:102510000B596A4600216068984700BF00BF00BFA2
:10252000BDE8FC812DE9F04104460D4600262068F7
:10253000FFF761F80020A066606E022804D12968C8
:10254000E1666968216703E02968E16669682167D7
:102550002168C96901F47060000A082800D90820C0
:102560000146C1F108000021002200BF38E0636E7F
:1025700023B3012B13D0022B2FD1A76E236FBB42A5
:102580000BD9D4E91A7333F81730C3F3080327685B
:10259000BB61A36E5B1CA36600E001221EE0A76E78
:1025A000236FBB4208D9D4E91A73DB5D2768BB618E
:1025B000A36E5B1CA36600E001220FE0A76E236FF1
:1025C000BB4208D9D4E91A73DB5D2768BB61A36EEF
:1025D0005B1CA36600E0012200E000BF00BF491CB5
:1025E000814201D2002AC2D02068012200F11401E8
:1025F0004FF0844303EB41114A6000BF3046BDE811
:10260000F0812DE9F0410446206847692068C669D9
:102610004FF4C0402168C86107F0020002287AD157
:1026200006F48040B0F5804F04D006F40050B0F5B9
:10263000005F70D14FF0000806F470652D0A082D78
:1026400000D908252846C0F10805082D11D1606E73
:10265000022806D1A16E206F884201D84FF00108F0
:1026600006E0A16E206F884201D84FF0010800BF3C
:1026700000BFB8F1010F0AD12068FEF7BCFF606F00
:10268000002847D00021626F6068904742E0002038
:10269000002100BF39E0626E22B3012A13D0022A62
:1026A00030D1A36E226F9A420BD9D4E91A3232F894
:1026B0001320C2F3080223689A61A26E521CA2661C
:1026C00000E001211FE0A36E226F9A4208D9D4E9ED
:1026D0001A32D25C23689A61A26E521CA26600E094
:1026E000012110E0A36E226F9A4208D9D4E91A3270
:1026F000D25C23689A61A26E521CA26600E001219E
:1027000001E008E000BF00BF401CA84201D2002940
:10271000C1D000BF00BFBDE8F0812DE9FF4F87B0F9
:10272000814692469B46DDF854800120049000BF0C
:1027300000BF00BF08980068000901900121002037
:10274000019ACDE9050108460599FDF712FE0646F6
:102750000F460020000240EA19604FEA0921CDE946
:10276000021032463B46DDE90201FDF7D1FDCDE91D
:1027700002010020800140EA9A654FEA8A1464222F
:10278000002320462946FDF7C3FD03234FF0000C2C
:10279000A0FB032E01FB03E100FB0C10C8E90020A5
:1027A00000218901149841EA906786010022DBF13B
:1027B000400162EB02008E19474132463B46DDE99B
:1027C0000201FDF7A5FD06460F46D8E90001201AD3
:1027D00075EB010020D3D8E90002211A65EB020055
:1027E000711A77EB000017D3D8E900100919684176
:1027F000891BB84110D3A01B75EB070005D2311B14
:1028000067EB0500C8E9001004E0A11B65EB0700B9
:10281000C8E900100020049004980BB0BDE8F08FC8
:102820000000000000000000000000001E1E3E3EF0
:102830007CFCF8F0E08080E0F8F8FC7E3E1F1F1F73
:102840001F1F3E3E7EFCF8F0E0800000000000000C
:10285000000000001E3E3E7EFCFCF8F0E0000000A0
:102860000000000000000000000000000000000068
:102870000000000000000000000000000000000058
:102880000000000000000000000000000000000048
:102890000000000000000000000000000000000038
:1028A00000003CFCFCFCF0C0800000000000008048
:1028B000C0F3FFFFFF3F3FFFFFFFF1C080000000BC
:1028C000000000000003070707077CFCFCFCF0C0C9
:1028D0008000000000000080C0FFFFFFFF3F0000FD
:1028E0000000000000808080808080808080808068
:1028F000808080808000000000000080C0C0000058
:1029000000000000000000000000000000C0C0C087
:102910000000000000808080808000000000000037
:10292000000000000103070F0F0F1FDFDFDFCFCF15
:102930008F870301000000000307070F0F0F1FDF41
:10294000E0E0E0C0C0800000000000010387C7CFC6
:10295000CFFFFFFFFFFFCFCF8F87030100000000F5
:10296000000000000000FCFCFC0CFCFF2F2DFCFC18
:102970000CFCFCFC00000000181CFEFFFB99999960
:10298000F9F90101FFFF000000000084C4FFFFFF10
:102990006444FFFFF9E908E8F8380000000000008F
:1029A0000000808080800000000000030307070F04
:1029B0001FFFFFFEF8E08080808000000000000123
:1029C000030303070FFFFFFEFCF0F8FEFFFF1F0FDE
:1029D000070303030303070F1FFFFFFEF8000000B8
:1029E0000000000000001F1F1F080F0F09090F0F34
:1029F000081F1F1F0000000000000F1F1F101010F5
:102A000010101212131B1C0C00000003033F3F3F69
:102A1000181F3F31181F0F0F191010000000000081
:102A200000000F3F7FFFFEF8F0E0E0C0C0E0E0F004
:102A3000F8FFFF7F1F070F1F3F7FFCF8F0F0E0E07B
:102A4000E0E0F0F8FCFF7F3F0F030F3F7FFFFCF853
:102A5000F0E0E0E0000000000000000000000000E6
:102A60000000000000000000000000000000000066
:102A70000000808000000000008080000000000056
:102A80000000000000000000000000000000000046
:102A90000000000000000000000000000000000036
:102AA00000000080C0E0F1F1FBFB7B7B030303032C
:102AB0000100000000000000C0E0E0F1F1F9F9F9C8
:102AC000F9F9F9F1F0E0E0C000000080C0E0F0F1B9
:102AD000F9F97B7B0000000000000000000000000E
:102AE00000000000000000000000000000000008DE
:102AF00008C8EBFBBA88101010FFFF101010000080
:102B0000000000FFFF0109191931F1E1F1BD1D09B4
:102B100001010000000000000000000000000000B3
:102B20000000FEFFFFFFC7010000000000000000E2
:102B300000C0F0F0F0E0FCFFFFFFDF030100000049
:102B400000000001031F3F3F3F3CFEFFFFFF8701E6
:102B5000000000000000000000E0F0F0F0E00000E5
:102B60000000000000000000000000000000000263
:102B700003017F7F01111110101F1F101010100092
:102B80000000003F3F202C2C262323212123272631
:102B900024200000000000000000000000000000F1
:102BA000000001070F1F3F3F7E7C7C7C7C7C7C7E8D
:102BB0003F3F1F0F070100030F1F3F3F7C7C7878CA
:102BC0003000000000000000000001070F1F3F3F21
:102BD0007E7C7C7C7C7C7C7E3F1F1F0F0300000082
:102BE00000000000000000000000000000000000E5
:102BF00000000000000000000000000000000000D5
:102C000000000000000000000000000000000000C4
:102C100000000000000000000000000000000000B4
:102C200000000000000000000000000000000000A4
:102C30000000000000000000000000000000000094
:102C40000000000000000000000000001E1E3E3ECC
:102C50007CFCF8F0E08080E0F8F8FC7E3E1F1F1F4F
:102C60001F1F3E3E7EFCF8F0E080000000000000E8
:102C7000000000001E3E3E7EFCFCF8F0E00000007C
:102C80000000000000000000000000000000000044
:102C90000000000000000000000000000000000034
:102CA0000000000000000000000000000000000024
:102CB0000000000000000000000000000000000014
:102CC00000003CFCFCFCF0C0800000000000008024
:102CD000C0F3FFFFFF3F3FFFFFFFF1C08000000098
:102CE000000000000003070707077CFCFCFCF0C0A5
:102CF0008000000000000080C0FFFFFFFF3F0000D9
:102D000000000000000000000000000000000000C3
:102D100000000000000000000000000000000000B3
:102D200000000000000000000000000000000000A3
:102D30000000000000000000000000000000000093
:102D4000000000000103070F0F0F1FDFDFDFCFCFF1
:102D50008F870301000000000307070F0F0F1FDF1D
:102D6000E0E0E0C0C0800000000000010387C7CFA2
:102D7000CFFFFFFFFFFFCFCF8F87030100000000D1
:102D80000000000000000000000000000000000043
:102D90000000000000000000000000000000000033
:102DA0000000000000000000000000000000000023
:102DB0000000000000000000000000000000000013
:102DC0000000808080800000000000030307070FE0
:102DD0001FFFFFFEF8E080808080000000000001FF
:102DE000030303070FFFFFFEFCF0F8FEFFFF1F0FBA
:102DF000070303030303070F1FFFFFFEF800000094
:102E000000000000000000000000000000000000C2
:102E100000000000000000000000000000000000B2
:102E200000000000000000000000000000000000A2
:102E30000000000000000000000000000000000092
:102E400000000F3F7FFFFEF8F0E0E0C0C0E0E0F0E0
:102E5000F8FFFF7F1F070F1F3F7FFCF8F0F0E0E057
:102E6000E0E0F0F8FCFF7F3F0F030F3F7FFFFCF82F
:102E7000F0E0E0E0000000000000000000000000C2
:102E80000000000000000000000000000000000042
:102E90000000000000000000000000000000000032
:102EA0000000000000000000000000000000000022
:102EB0000000000000000000000000000000000012
:102EC00000000080C0E0F1F1FBFB7B7B0303030308
:102ED0000100000000000000C0E0E0F1F1F9F9F9A4
:102EE000F9F9F9F1F0E0E0C000000080C0E0F0F195
:102EF000F9F97B7B000000000000000000000000EA
:102F000000000000000000000000000000000000C1
:102F100000000000000000000000000000000000B1
:102F200000000000000000000000000000000000A1
:102F30000000000000000000000000000000000091
:102F40000000FEFFFFFFC7010000000000000000BE
:102F500000C0F0F0F0E0FCFFFFFFDF030100000025
:102F600000000001031F3F3F3F3CFEFFFFFF8701C2
:102F7000000000000000000000E0F0F0F0E00000C1
:102F80000000000000000000000000000000000041
:102F90000000000000000000000000000000000031
:102FA0000000000000000000000000000000000021
:102FB0000000000000000000000000000000000011
:102FC000000001070F1F3F3F7E7C7C7C7C7C7C7E69
:102FD0003F3F1F0F070100030F1F3F3F7C7C7878A6
:102FE0003000000000000000000001070F1F3F3FFD
:102FF0007E7C7C7C7C7C7C7E3F1F1F0F030000005E
:1030000000000000000000000000000000000000C0
:1030100000000000000000000000000000000000B0
:1030200000000000000000000000000000000000A0
:103030000000000000000000000000000000000090
:103040000000000000000000000000000000000080
:103050000000000000000000000000000000000070
:103060000000000000000000000000000000000060
:103070000000000000000000000000000000000050
:103080000000000000000000000000000000000040
:103090000000000000000000000000000000000030
:1030A0000000000000000000000000000000000020
:1030B0000000000000000000000000000000000010
:1030C0000000000000000000000000000000000000
:1030D00000000000000000000000000000000000F0
:1030E00000000000000000000000000000000000E0
:1030F00000000000000000000000000000000000D0
:1031000000000000000000000000000000000000BF
:1031100000000000000000000000000000000000AF
:10312000000000000000808080808080808080809F
:10313000808080808080808080808080808080808F
:10314000808080808080808080808080808080807F
:10315000000000000000000000000000000000006F
:10316000000000000000000000000000000000005F
:10317000000000000000000080808080808080804F
:10318000808000000000000000000000000000003F
:10319000000000000000000000000000000000002F
:1031A000000000000C0F0F8FFFFFFF7F3F1F0F8FEE
:1031B000E7F3F9FDFDCDCDC1C10101C1E1E1E1615F
:1031C00081C1E1E1E16181C1E1E1E1E1E1E1E1E16F
:1031D000C00080C0E0E0E0E0E0E0F8FCFC3CDCECBB
:1031E000E0E0E0E0E0E06000C0E0E080C0E0E0E0DF
:1031F000C00000C0F0FCFEFFEFEFEFEFEFCF0F8F4E
:10320000CFC3E0E0E0E0E0E0E0E0600080C0C0E0EC
:10321000F0F8FCDCCC0C8CCCC0E0F0F0F0C040004E
:1032200000C0E0F0F87E1F0F0701C0E0F0FCFF7F58
:103230009FCFF3FD7F1FCFE3F8FEFFFFEFF3FDFE0F
:103240003F8FE3F9FCFE7F9FEFF3FD3F1FC7F3F9CC
:10325000FCFEFFEFF7F9FF3F0FF7FBFDFEFFFFCF8F
:10326000EFEFEE0FC7F1FCFF7F1F0F0301C1F1F17C
:10327000F0F0F3F3F3F3F3F3F33F1F0F43F8FEFF24
:10328000FFEFE7F1FDFF7F3F1F07C0E0F9FD7F1F64
:1032900007010161F8FCFEFFEF6703010000000079
:1032A000000000000000000000000000000000001E
:1032B000000000000000000000000000000000000E
:1032C00000000000000000000000000000000000FE
:1032D00000000000000000000000000000000000EE
:1032E00000000000000000000000000000010101DB
:1032F00001010101010101000000000000000000C7
:1033000000000000000000000000010101000000BA
:1033100000000000000000000000000000000000AD
:10332000000000000000000000000000000000009D
:10333000000000000000000000000000000000008D
:10334000000000000000000000000000000000007D
:10352000000000000000000000C0C0C0C0C0C0C05B
:10353000C0C0C0C0C0C0C00000C0C0C0C0C0C0C00B
:10354000C0C0C0C0C0C0C00000000000000000003B
:10355000000000000000000000C0C0C0C0C00000AB
:103560000000C0C0C0C0C0000000008080C0C0C05B
:10357000C0C0C0C08000000000C0C0C0C0C000000B
:103580000000C0C0C0C0C0000000008080C0C0C03B
:10359000C0C0C080800000000000000000000000EB
:1035A0000000000000000000000101010101FFFF18
:1035B000FFFF010101010100000101010101FFFF05
:1035C000FFFF0101010101000000000000000000F8
:1035D000000000000000000000FFFFFFFFFFFEC032
:1035E000E0FFFFFFFFFFFF0000040F0F0F038181CB
:1035F000C1C1FFFF7F3F000000FFFFFFFFFFC0C012
:10360000C0C0FFFFFFFFFF0080FCFFFFFF070101BD
:1036100001031FFFFFFE000000000000000000008B
:103620000000000000000000000000000000FFFF9C
:10363000FFFF000000000000000000000000FFFF8E
:10364000FFFF00000000000000000000000000007C
:10365000000000000000000000FFFFFFFF7FFFFFF1
:10366000FFFF3FFFFFFFFF000060E0E0E08001019F
:103670000183FFFFFFFE300000FFFFFFFFFF03039A
:103680000303FFFFFFFFFF00037FFFFFFFC080106A
:103690007CFCF8FFFF9F000000000000000000001D
:1036A000000000000000000000000000000007070C
:1036B00007070000000000000000000000000707EE
:1036C00007070000006060606060606060606060CC
:1036D00060606060606060600007070707000707C0
:1036E0000703000707070700000001030307070798
:1036F0000707030301000000000707070707000092
:10370000000007070707070000000003030707077B
:103710000703030707070000000000000000000087
:103720000000000000000000000000000000000099
:103730000000000000000000000000000000000089
:103740000000000000000000000000000000000079
:103750000000000000000000000000000000000069
:103760000000000000000000000000000000000059
:103770000000000000000000000000000000000049
:103780000000000000000000000000000000000039
:103790000000000000000000000000000000000029
:1037A0000000000000000000000000000000000019
:1037B0000000000000000000000000000000000009
:1037C00000000000000000000000000000000000F9
:1037D00000000000000000000000000000000000E9
:1037E00000000000000000000000000000000000D9
:1037F00000000000000000000000000000000000C9
:1038000000000000000000000000000000000000B8
:1038100000000000000000000000000000000000A8
:103820000000000000000000000000000000000098
:103830000000000000000000000000000000000088
:103840000000000000000000000000000000000078
:103850000000000000000000000000000000000068
:103860000000000000000000000000000000000058
:103870000000000000000000000000000000000048
:103880000000000000000000000000000000000038
:103890000000000000000000000000000000000028
:1038A0000000000000000000000000000000000018
:1038B0000000000000000000000000000000000008
:1038C00000000000000000000000000000000000F8
:1038D00000000000000000000000000000000000E8
:1038E00000000000000000000000000000000000D8
:1038F00000000000000000000000000000000000C8
:1039000000000000000000000000000000000000B7
:1039100000000000000000000000000000000000A7
:103920000000000080808080808080808080808097
:103930008080808080000000808080808080808007
:1039400080808080000000000000008080808080F7
:1039500080808080808000000000008080808080E7
:1039600080000000000080808080800000000080D7
:1039700080808080000000808080808080808080C7
:103980008080808080000000000000000080808037
:1039900080808080800000000000000000000000A7
:1039A000000000000F1F1F1F1FFFFFFFFFFFFFFF93
:1039B0001F1F1F1F0FF0FEFFFFFFFFFF1F1F1F1F17
:1039C000FFFFFFFFFFFEF800F8FEFFFFFFFFFFEF26
:1039D000CFCFDFFFFFFFBFBE1C00FFFFFFFFFFFFDA
:1039E000FFE0E0E0E0FFFFFFFFFFFFFF0000FFFF61
:1039F000FFFFFFFFFF0000FFFFFFFFFFFFFFDFDF15
:103A0000DFFFFFFFFFFF7E3C000080F0FEFFFFFFB7
:103A1000FF7FFFFFFFFFFCF0000000000000000040
:103A2000000000000000000000FFFFFFFFFFFFFF9D
:103A300000000000003FFFFFFFFFFFFFF0F0F0F08D
:103A4000FFFFFFFFFFFF3F0078FDFBFBFFFFF7E7F6
:103A5000E7E7FFFFFFFFFFFF7F00FFFFFFFFFFFF25
:103A6000FF07070707FFFFFFFFFFFFFF0000FFFF44
:103A7000FFFFFFFFFF0000FFFFFFFFFFFFFFF7F764
:103A8000F7FFFFFFFFFFFE7E00F0FFFFFFFFFF7F5E
:103A90003F3E3F7FFFFFFFFFFFF8000000000000F8
:103AA0000000000000000000000303030303030103
:103AB00000000000000000010303030303030303ED
:103AC00003030303010000000000010303030303D9
:103AD00003030303030301010000010303030303C2
:103AE00001000000000103030303030100000103C0
:103AF000030303030100000303030303030303039E
:103B00000303030303010000030303030303000093
:103B10000000000001030303030303000000000092
:103B20000000000000000000000000000000000095
:103B30000000000000000000000000000000000085
:103B40000000000000000000000000000000000075
:103B50000000000000000000000000000000000065
:103B60000000000000000000000000000000000055
:103B70000000000000000000000000000000000045
:103B80000000000000000000000000000000000035
:103B90000000000000000000000000000000000025
:103BA0000000000000000000000000000000000015
:103BB0000000000000000000000000000000000005
:103BC00000000000000000000000000000000000F5
:103BD00000000000000000000000000000000000E5
:103BE00000000000000000000000000000000000D5
:103BF00000000000000000000000000000000000C5
:103C000000000000000000000000000000000000B4
:103C100000000000000000000000000000000000A4
:103C200008183878F8F8783818080018143E10008A
:103C30003E222ABA800000000000000000000000C0
:103C40000000000000000000000000000000000074
:103C50000000000000000000000000000000000064
:103C60000000000000000000000000000000000054
:103C7000000000000000000000000000E0E0F80884
:103C8000080808080808E8E8E8E8E8E8E8E8E8E8F4
:103C9000E808F800F88888888800F8888888F8009C
:103CA000000000007F7F007878007C7C007E7E0032
:103CB0007F7F007F7F000000000000000000000008
:103CC00000000000000000000000000000000000F4
:103CD00000000000000000000000000000000000E4
:103CE00000000000000000000000000000000000D4
:103CF00000000000000000000000000007071F1087
:103D0000101010101010171717171717171717176D
:103D100017101F00101010101F001F1010101F0090
:103D20000000000000000000002F0000000007005D
:103D3000070000147F147F1400242A7F2A120062D7
:103D40006408132300364955225000000503000083
:103D500000001C224100000041221C000014083E0B
:103D600008140008083E0808000000A060000008D1
:103D70000808080800006060000000201008040225
:103D8000003E5149453E0000427F400000426151E3
:103D90004946002141454B31001814127F1000277D
:103DA00045454539003C4A49493000017109050340
:103DB00000364949493600064949291E0000363671
:103DC00000000000563600000008142241000014D4
:103DD00014141414000041221408000201510906B1
:103DE00000324959513E007C1211127C007F494932
:103DF0004936003E41414122007F4141221C007F63
:103E000049494941007F09090901003E4149497A70
:103E1000007F0808087F0000417F410000204041EA
:103E20003F01007F08142241007F40404040007F56
:103E3000020C027F007F0408107F003E4141413E9A
:103E4000007F09090906003E4151215E007F0919E2
:103E500029460046494949310001017F0101003FDF
:103E60004040403F001F2040201F003F4038403F5F
:103E700000631408146300070870080700615149C3
:103E8000454300007F41410000552A552A55000056
:103E900041417F00000402010204004040404040D4
:103EA000000001020400002054545478007F48446C
:103EB000443800384444442000384444487F0038A3
:103EC0005454541800087E0901020018A4A4A47CCC
:103ED000007F080404780000447D40000040808496
:103EE0007D00007F102844000000417F4000007CDE
:103EF00004180478007C08040478003844444438EA
:103F000000FC242424180018242418FC007C080435
:103F1000040800485454542000043F444020003C0E
:103F20004040207C001C2040201C003C4030403C95
:103F3000004428102844001CA0A0A07C0044645425
:103F40004C44141414141414000000000000000069
:103F50000000000000000000000000F80000000069
:103F6000000000333000000000100C06100C0600AA
:103F7000000000000000000040C07840C078400011
:103F8000043F04043F040400007088FC0830000073
:103F9000001820FF211E0000F008F000E0180000CB
:103FA00000211C031E211E0000F008887000000084
:103FB0001E2123241927211010160E0000000000D6
:103FC0000000000000000000000000E018040200F3
:103FD000000000071820400000020418E000000064
:103FE0000040201807000000404080F08040400062
:103FF0000202010F01020200000000F000000000B8
:104000000101011F0101010000000000000000008B
:1040100080B0700000000000000000000000000000
:104020000001010101010101000000000000000089
:104030000030300000000000000000008060180424
:10404000006018060100000000E010080810E00001
:10405000000F102020100F00001010F800000000CA
:104060000020203F20200000007008080888700011
:104070000030282422213000003008888848300091
:104080000018202020110E000000C02010F80000B1
:1040900000070424243F240000F80888880808004A
:1040A0000019212020110E0000E01088881800005F
:1040B000000F112020110E0000380808C838080031
:1040C0000000003F000000000070880808887000B1
:1040D000001C222121221C0000E010080810E00032
:1040E0000000312222110F00000000C0C0000000BB
:1040F00000000030300000000000008000000000E0
:1041000000008060000000000000804020100800D7
:1041100000010204081020004040404040404000A0
:10412000040404040404040000081020408000007B
:104130000020100804020100007048080808F00080
:104140000000003036010000C030C828E810E00050
:104150000718272423140B000000C038E0000000DB
:10416000203C23020227382008F888888870000045
:10417000203F202020110E00C03008080808380019
:10418000071820202010080008F808080810E00090
:10419000203F202020100F0008F88888E808100031
:1041A000203F20202320180008F88888E808100005
:1041B000203F200003000000C0300808083800003D
:1041C00007182020221E020008F808000008F8083E
:1041D000203F210101213F20000808F808080000C5
:1041E0000020203F2020000000000808F8080800F8
:1041F000C08080807F00000008F888C02818080070
:10420000203F20012638200008F8080000000000A8
:10421000203F20202020300008F8F800F8F808009F
:10422000203F003F003F200008F830C00008F80899
:10423000203F200007183F00E01008080810E000A9
:104240000F10202020100F0008F808080808F000C0
:10425000203F210101010000E01008080810E000E3
:104260000F18242438504F0008F888888888700078
:10427000203F2000030C3020007088080808380018
:104280000038202121221C00180808F8080818000E
:104290000000203F2000000008F808000008F8088F
:1042A000001F202020201F000878880000C8380840
:1042B000000007380E010000F80800F80008F800B8
:1042C000033C0700073C0300081868808068180852
:1042D00020302C03032C30200838C800C8380800D0
:1042E0000000203F2000000010080808C83808001F
:1042F0002038262120201800000000FE02020200C3
:104300000000007F40404000000C30C00000000072
:10431000000000010638C00000020202FE0000009A
:10432000004040407F000000000004020202040040
:10433000000000000000000000000000000000007D
:104340008080808080808080000202040000000065
:10435000000000000000000000008080808000005D
:104360000019242222223F2008F80080800000004B
:10437000003F112020110E0000000080808000000E
:10438000000E112020201100000000808088F8001D
:10439000000E112020103F2000008080808000004F
:1043A000001F222222221300008080F088888818B3
:1043B0000020203F202000000000808080808000BE
:1043C000006B94949493600008F800808080000053
:1043D000203F210000203F2000809898000000002E
:1043E0000020203F2020000000000080989800005E
:1043F00000C08080807F000008F80000808080007E
:10440000203F24022D302000000808F800000000A2
:104410000020203F2020000080808080808080005D
:10442000203F20003F20003F8080008080800000EF
:10443000203F210000203F2000008080808000007D
:10444000001F202020201F008080008080000000AE
:1044500080FFA12020110E000000008080808000DD
:10446000000E112020A0FF808080800080808000CE
:1044700020203F21200001000000808080808000FB
:104480000033242424241900008080E08080000070
:104490000000001F202000008080000000808000BD
:1044A000001F202020103F2080808000008080801E
:1044B00000010E30080601008080008000808080AE
:1044C0000F300C030C300F000080800080808000D3
:1044D0000020312E0E3120008080800000808080FE
:1044E00080818E70180601000080808080808000AE
:1044F0000021302C2221300000000000807C0202CC
:1045000000000000003F404000000000FF000000ED
:1045100000000000FF0000000002027C800000009C
:104520000040403F000000000006010102020404B8
:104530000000000000000000304848B0808080008B
:1045400000001F20202020000000180CE6120808A0
:10455000000000404F301010F8080812E60C180058
:10456000111111314F400000081020FC885020002C
:104570000804023F110A04000000000080C0C0C00F
:10458000C0C0C0800000000000F0FEFF0701000076
:104590000000030FFFFC0000001FFFFFC000000031
:1045A000000000E0FF7F0000000000030307060E8C
:1045B0000E0607030100000000000000000000C01C
:1045C000C0C00000000000000000001C0C0603FF3B
:1045D000FFFF00000000000000000000000000FFDE
:1045E000FFFF0000000000000000000000000007C6
:1045F000070700000000000000000080C0C0C0C02D
:10460000C0C0C08080000000000407070301000054
:104610000000C1FFFF1E000000000080C0E07038F5
:104620001E0F030100000000000007070707060631
:1046300006060606060600000000000080C0C0C096
:10464000C0C0C080800000000000060F0301808011
:1046500080C0C17F7F1E00000040C0E080000101DB
:10466000010303DFFEFC0000000001030707060E44
:104670000E06070303000000000000000000000019
:104680000080C0C00000000000000000C0E0703CDE
:104690001E07FFFF0000000070787E7F737170704E
:1046A0007070FFFF707070000000000000000000DC
:1046B0000000070700000000000000C0C0C0C0C02C
:1046C000C0C0C0C0C00000000080F8FFCF606060C4
:1046D00060E0C0C08000000000C1E1810000000077
:1046E000000001E7FFFE000000010307060E0E0EAA
:1046F0000E0707030100000000000000000000009A
:10470000C0C0C00000000000000000C0F0F8FECFF4
:10471000C7C1C0C080000000007CFFFF8301000013
:1047200000000001FFFFFE00000001030707060E66
:104730000E0E06070301000000C0C0C0C0C0C0C00C
:10474000C0C0C0C0C0C0C000000000000000000029
:1047500080E0F83E0F030100000000000080F0FE42
:104760003F070000000000000000000004070701F0
:10477000000000000000000000000080C0C0C0C0B9
:10478000C0C0C0800000000000007F7FE1C08080CA
:1047900080C0E17F7F1E000000FCFECF0703010107
:1047A0000103038FFEFC00000001030707060E0E45
:1047B0000E0607070301000000000080C0C0C0C053
:1047C000C0C0C0800000000000FEFF8701010000A3
:1047D000000183FFFF7E000000010307070686E655
:1047E000FE7F1F070300000000000000080E0F03FB
:1047F00001000000000000000000000000000000B8
:104800000000000000000000000000000000E0E0E8
:10481000E0000000000000000000000000000000B8
:10482000000000000000000000000000000006067C
:104830000600000000000000000000FC84B4B4FC8E
:10484000FCB4B48404FC000000603E03001E12129D
:1048500012125E40407F0000008080808080808057
:1048600080808080808080000001010101010101C1
:1048700001010101010101000000101010101010D1
:104880001010101010000000003030303030303088
:104890003030303030303000000008888888888818
:1048A0008888888888080000002020212121212173
:1048B00021212121212020000000FC040484FC048B
:1048C00004FC040404FC000000007F2426232020B4
:1048D00020232222227F000000000C8C8C8CECFC18
:1048E0008C8C8C8C0C0C00000060202020303F2031
:1048F0002020203F20202000006060606060646C09
:104900007860606060606000000060301C0702003A
:104910000000070E18700000000000FEFE8686866C
:1049200086868686FE0000000000007F7F303030E3
:10493000303030307F000000584900000000002077
:104940003001000000040000F049000030010020A8
:1049500030030000881100001CF71EFF021808BB7E
:104960001E371E271E0F021808E30EE71E7F1E3F8C
:10497000021E7F1E131E03183E371E771E1F0223C2
:104980000F1E1A0314690241A9102912C910490205
:10499000294E1A374E29024B0118022B071E021E00
:1049A000031E771F7F6A1A5F023A53503C471E4F1F
:1049B000305A3F30497A1A1F0A3A330249B07EFF13
:1049C0001EBF1E235C1A3F3E1A1722412B3B1E02BC
:1049D000495E1A1F044936898C1A0F163A1702E9E4
:1049E0001AE9D01A072C29F2614540DFC204000001
:04000005000002D91C
:00000001FF
